:100000000C9434000C9446000C9446000C9446006A
:100010000C9446000C9446000C9446000C94460048
:100020000C9446000C9446000C9446000C94460038
:100030000C9446000C9446000C9446000C94460028
:100040000C9446000C9476000C9446000C944600E8
:100050000C9446000C9446000C9446000C94460008
:100060000C9446000C94460011241FBECFEFD8E03C
:10007000DEBFCDBF11E0A0E0B1E001C01D92A6340B
:10008000B107E1F70E9454000C9415010C94000094
:10009000803148F4E82FF0E0DF01AB5FBE4F6C9396
:1000A000EB5EFE4F408308950E94F900789480E053
:1000B00090E021E0FC01EB5FFE4F2083FC01EB5E52
:1000C000FE4F108201962E5F2131A1F78FE090E064
:1000D00021E0FC01EB5FFE4F1082FC01EB5EFE4F66
:1000E000208301972E5F2131A1F7FFCF1F920F923E
:1000F0000FB60F9211242F933F934F935F936F93FB
:100100008F939F93AF93BF93EF93FF9380910401DD
:10011000843008F453C02A9A109204012A988091DE
:100120002501882391F4A6E2B1E0E5E0F1E080E169
:1001300001900D928150E1F7A6E3B1E0E5E1F1E035
:1001400080E101900D928150E1F76091250140E03E
:1001500050E0A2E0B0E0CA01809590958370907065
:10016000282F220F942F96959695FA01EA5DFE4F5F
:100170008081E92FF0E0681760F0E050FF4FCD017B
:1001800002C0880F991F2A95E2F78095208182236B
:100190000BC0E050FF4FCD0102C0880F991F2A9578
:1001A000E2F79C018081822B80834F5F5F4F40315B
:1001B000510589F66F5F6F7060932501809104018E
:1001C000E82FF0E0E050FF4F90819EBD8F5F80935D
:1001D0000401FF91EF91BF91AF919F918F916F912A
:1001E0005F914F913F912F910F900FBE0F901F90F5
:1001F00018951092000110920101109202011092C4
:10020000030185B1837D85B984B18C6284B980EDA9
:100210008CBD90910401E92FF0E0E050FF4F808108
:0E0220008EBD9F5F909304010895F894FFCF68
:00000001FF
