:100000000C9434000C943E000C943E000C943E0082
:100010000C943E000C943E000C943E000C943E0068
:100020000C943E000C943E000C943E000C943E0058
:100030000C943E000C943E000C943E000C943E0048
:100040000C943E000C943E000C943E000C943E0038
:100050000C943E000C943E000C943E000C943E0028
:100060000C943E000C943E0011241FBECFEFD8E04C
:10007000DEBFCDBF0E9464000C9467000C940000AA
:1000800084B18C6284B985B1837D85B980E58CBDEE
:100090008AEA8EBD0DB407FEFDCF8AEA8EBD0DB48F
:1000A00007FEFDCF8AEA8EBD0DB407FEFDCF8AEABA
:1000B0008EBD0DB407FEFDCF85B194E0892785B9CB
:1000C00085B1892785B908950E944000FFCFF89433
:0200D000FFCF60
:00000001FF
