:100000000C9434000C9446000C9446000C9446006A
:100010000C9446000C9446000C9446000C94460048
:100020000C9446000C9446000C9446000C94460038
:100030000C9446000C9446000C9446000C94460028
:100040000C9446000C9482000C9446000C944600DC
:100050000C9446000C9446000C9446000C94460008
:100060000C9446000C94460011241FBECFEFD8E03C
:10007000DEBFCDBF11E0A0E0B1E001C01D92AC3AFF
:10008000B107E1F70E9448000C9482020C94000032
:100090000E943F010E948B0178940E9472000E948E
:1000A0006F028091000190910101019690930101EE
:1000B000809300018531910594F30196909301019D
:1000C00080930001ECCF803110F08FEF0895E82F7E
:1000D000F0E0DF01A95FBE4F6C93E95EFE4F408305
:1000E00080E0089580E090E0FC01E95FFE4F10821F
:1000F000FC01E95EFE4F1082019680319105A1F767
:1001000080E008951F920F920FB60F921124EF9284
:10011000FF920F931F932F933F934F935F936F9390
:100120007F938F939F93AF93BF93CF93DF93EF937F
:10013000FF9380910601843008F47FC02A9A1092C0
:1001400006012A9880912701882391F4ACE4B1E05C
:10015000E7E0F1E080E101900D928150E1F7ACE53C
:10016000B1E0E7E1F1E080E101900D928150E1F72B
:1001700060912701C62FD0E040E050E082E0E82EF9
:10018000F12C01E010E0CA01809590958370907089
:10019000782F770FA42FA695A695FA01E45BFE4F62
:1001A0008081EA2FF0E0681768F0EE5FFE4FC7012C
:1001B000072E02C0880F991F0A94E2F780952081CC
:1001C00082230BC0EE5FFE4F9701072E02C0220F65
:1001D000331F0A94E2F78081822B8083FA01E45A6C
:1001E000FE4F808190E0809590958F709070EA2FFF
:1001F000F0E08C179D0764F0EE5FFE4FC80102C06F
:10020000880F991F7A95E2F78095208182230AC092
:10021000EE5FFE4F980102C0220F331F7A95E2F77E
:100220008081822B80834F5F5F4F4031510509F001
:10023000AACF6F5F6F706093270180910601E82F4E
:10024000F0E0EE5FFE4F90819EBD8F5F80930601D0
:10025000FF91EF91DF91CF91BF91AF919F918F91DE
:100260007F916F915F914F913F912F911F910F91CE
:10027000FF90EF900F900FBE0F901F901895109267
:10028000020110920301109204011092050185B140
:10029000837D85B984B18C6284B980ED8CBD9091E9
:1002A0000601E92FF0E0EE5FFE4F80818EBD9F5F7B
:1002B000909306010895982F80538A3040F0892F3B
:1002C0008154863010F08FEF0895892F8753089559
:1002D000982F8A3010F4805D08958A50863010F08F
:1002E0008FEF0895892F8F5B0895282FE0912801C3
:1002F0009E2F9F5F903408F090E08091290198171D
:1003000011F48FEF0895F0E0E459FE4F20839093AD
:10031000280180E00895519A50981092C00088E119
:100320008093C10086E08093C20087E090E09093C4
:10033000C5008093C40008959091290180912801FF
:10034000981779F0E92FF0E0E459FE4F808180930F
:10035000C600892F8F5F80932901803410F010929E
:10036000290108950F931F93CF93DF938091C000CD
:100370008C7119F08091C600ADC00091C600802F2D
:100380008257823010F410924B0110914B011130C2
:10039000A9F0123009F44BC0112309F091C00337C2
:1003A00021F410922A0181E006C0023709F08AC0C8
:1003B00010922A0182E080934B0184C00A3011F030
:1003C0000D30E9F480912A01803269F4CBE2D1E06A
:1003D00010E0812F688149810E9463001F5F22968F
:1003E0001031B9F76DC0833009F06AC080912B01DC
:1003F00060912C0140912D010E94630061C0802F0B
:100400000E945B0187FD5EC0E0912A019E2F9F5FE5
:10041000E03220F4F0E0E55DFE4F808390932A0106
:1004200080912A01823208F44DC081E241C00A3035
:1004300011F00D3089F580912A018130A1F480916D
:100440002B01C82FD0E0FE01E95FFE4F80810E94A2
:1004500068010E947501C95EDE4F88810E946801B3
:100460000E9475012DC0882369F5C0E0D0E0FE012F
:10047000E95FFE4F80810E9468010E947501FE01C4
:10048000E95EFE4F80810E9468010E9475012196FD
:10049000C031D10561F714C0802F0E945B0187FD38
:1004A0000FC090912A01992331F480932B0181E0B0
:1004B00080932A0107C0923028F410932A0102C0C9
:1004C00010924B01802F0E9475018091C0008068BE
:1004D0008093C000DF91CF911F910F91089580917B
:1004E000C00085FF08C090912801809129019817CC
:1004F00011F00E949C018091C00087FF02C00E9401
:08050000B2010895F894FFCF49
:00000001FF
