:100000000C9434000C9446000C9446000C9446006A
:100010000C9446000C9446000C9446000C94460048
:100020000C9446000C9446000C9446000C94460038
:100030000C9446000C9446000C9446000C94460028
:100040000C9446000C946D000C94B0010C94460086
:100050000C9489010C9446000C9446000C944600C4
:100060000C9446000C94460011241FBECFEFD8E03C
:10007000DEBFCDBF11E0A0E0B1E001C01D92AA3A01
:10008000B107E1F70E9448000C9481020C94000033
:100090000E942A0178940E945D00FFCF803110F009
:1000A0008FEF0895E82FF0E0DF01AB5FBE4F6C9358
:1000B000EB5EFE4F408380E0089580E090E0FC011D
:1000C000EB5FFE4F1082FC01EB5EFE4F108201964B
:1000D00080319105A1F780E008951F920F920FB62D
:1000E0000F921124EF92FF920F931F932F933F9340
:1000F0004F935F936F937F938F939F93AF93BF9330
:10010000CF93DF93EF93FF9380910401843008F441
:100110007FC02A9A109204012A9880912501882391
:1001200091F4AAE4B1E0E5E0F1E080E101900D9204
:100130008150E1F7AAE5B1E0E5E1F1E080E101906D
:100140000D928150E1F760912501C62FD0E040E08B
:1001500050E082E0E82EF12C01E010E0CA01809529
:10016000909583709070782F770FA42FA695A69501
:10017000FA01E65BFE4F8081EA2FF0E0681768F035
:10018000E050FF4FC701072E02C0880F991F0A9445
:10019000E2F78095208182230BC0E050FF4F97014A
:1001A000072E02C0220F331F0A94E2F78081822BB0
:1001B0008083FA01E65AFE4F808190E08095909509
:1001C0008F709070EA2FF0E08C179D0764F0E0507C
:1001D000FF4FC80102C0880F991F7A95E2F78095FA
:1001E000208182230AC0E050FF4F980102C0220FF5
:1001F000331F7A95E2F78081822B80834F5F5F4FB8
:100200004031510509F0AACF6F5F6F7060932501EF
:1002100080910401E82FF0E0E050FF4F90819EBDF7
:100220008F5F80930401FF91EF91DF91CF91BF9198
:10023000AF919F918F917F916F915F914F913F917E
:100240002F911F910F91FF90EF900F900FBE0F9085
:100250001F90189510920001109201011092020156
:100260001092030185B1837D85B984B18C6284B914
:1002700080ED8CBD90910401E92FF0E0E050FF4F3C
:1002800080818EBD9F5F909304010895982F8053C5
:100290008A3040F0892F8154863010F08FEF089516
:1002A000892F8B540895982F8A3010F4805D08951B
:1002B0008A50863010F08FEF0895892F8F5B089554
:1002C000282F8091C1008076803221F42093C600CF
:1002D00080E00895E09126019E2F9F5F903408F002
:1002E00090E080912701981711F48FEF0895F0E0C6
:1002F000E659FE4F20839093260180E0089583E025
:1003000090E09093C5008093C40088ED8093C10075
:1003100008951F920F920FB60F9211248F939F93FF
:10032000EF93FF939091270180912601981779F020
:10033000E92FF0E0E659FE4F80818093C600892FB7
:100340008F5F80932701803410F010922701FF9176
:10035000EF919F918F910F900FBE0F901F90189566
:100360001F920F920FB60F9211240F931F932F938A
:100370003F934F935F936F937F938F939F93AF932D
:10038000BF93CF93DF93EF93FF938091C0008C7165
:1003900019F08091C600A0C00091C600033711F487
:1003A0001092490110914901113079F0123009F48D
:1003B00042C0112309F08BC0033709F08AC01092A4
:1003C000280181E08093490184C00A30E9F48091DA
:1003D0002801803269F4C9E2D1E010E0812F688100
:1003E00049810E944E001F5F22961031B9F76FC0FD
:1003F000833009F06CC08091290160912A014091FD
:100400002B010E944E0063C0802F0E94460187FD91
:100410005EC090912801903248F4E92FF0E0E75D4A
:10042000FE4F80839F5F9093280153C0903209F064
:1004300050C081E244C00A30B1F58091280181307A
:10044000C9F410912901812F0E9453010E9460017B
:10045000C12FD0E0FE01EB5FFE4F80810E9453016F
:100460000E946001CB5EDE4F88810E9453010E9492
:1004700060012DC0882369F5C0E0D0E0FE01EB5F8C
:10048000FE4F80810E9453010E946001FE01EB5EDD
:10049000FE4F80810E9453010E9460012196C0316D
:1004A000D10561F714C0802F0E94460187FD0FC05F
:1004B00090912801992331F48093290181E0809360
:1004C000280107C0923028F41093280102C010922E
:1004D0004901802F0E946001FF91EF91DF91CF9140
:1004E000BF91AF919F918F917F916F915F914F914C
:1004F0003F912F911F910F910F900FBE0F901F9062
:060500001895F894FFCFEE
:00000001FF
