:100000000C9434000C9446000C9446000C9446006A
:100010000C9446000C9446000C9446000C94460048
:100020000C9446000C9446000C9446000C94460038
:100030000C9446000C9446000C9446000C94460028
:100040000C9446000C9466000C9446000C944600F8
:100050000C9446000C9446000C9446000C94460008
:100060000C9446000C94460011241FBECFEFD8E03C
:10007000DEBFCDBF11E0A0E0B1E001C01D92A6340B
:10008000B107E1F70E9454000C943F010C9400006A
:10009000803148F4E82FF0E0DF01AB5FBE4F6C9396
:1000A000EB5EFE4F408308950E942301789480E028
:1000B00090E0FC01EB5FFE4F8083FC01EB5EFE4FA6
:1000C0008083019680319105A1F7FFCF1F920F9297
:1000D0000FB60F921124EF92FF920F931F932F935D
:1000E0003F934F935F936F937F938F939F93AF93C0
:1000F000BF93CF93DF93EF93FF93809104018430FC
:1001000008F47FC02A9A109204012A988091250150
:10011000882391F4A6E2B1E0E5E0F1E080E101900E
:100120000D928150E1F7A6E3B1E0E5E1F1E080E175
:1001300001900D928150E1F760912501C62FD0E02A
:1001400040E050E082E0E82EF12C01E010E0CA012E
:100150008095909583709070782F770FA42FA69537
:10016000A695FA01EA5DFE4F8081EA2FF0E068175C
:1001700068F0E050FF4FC701072E02C0880F991F9B
:100180000A94E2F78095208182230BC0E050FF4F54
:100190009701072E02C0220F331F0A94E2F78081D5
:1001A000822B8083FA01EA5CFE4F808190E080958B
:1001B00090958F709070EA2FF0E08C179D0764F097
:1001C000E050FF4FC80102C0880F991F7A95E2F7EF
:1001D0008095208182230AC0E050FF4F980102C021
:1001E000220F331F7A95E2F78081822B80834F5F45
:1001F0005F4F4031510509F0AACF6F5F6F70609378
:10020000250180910401E82FF0E0E050FF4F90813C
:100210009EBD8F5F80930401FF91EF91DF91CF919D
:10022000BF91AF919F918F917F916F915F914F910E
:100230003F912F911F910F91FF90EF900F900FBE64
:100240000F901F90189510920001109201011092CA
:1002500002011092030185B1837D85B984B18C625E
:1002600084B980ED8CBD90910401E92FF0E0E0505D
:10027000FF4F80818EBD9F5F909304010895F89495
:02028000FFCFAE
:00000001FF
