:100000000C9434000C9446000C9446000C9446006A
:100010000C9446000C9446000C9446000C94460048
:100020000C9446000C9446000C9446000C94460038
:100030000C9446000C9446000C9446000C94460028
:100040000C9446000C9471000C9446000C944600ED
:100050000C9446000C9446000C9446000C94460008
:100060000C9446000C94460011241FBECFEFD8E03C
:10007000DEBFCDBF11E0A0E0B1E001C01D92AA3A01
:10008000B107E1F70E9448000C946E020C94000046
:100090000E942E010E94830178940E9461000E94B8
:1000A0006102FDCF803110F08FEF0895E82FF0E06E
:1000B000DF01AB5FBE4F6C93EB5EFE4F408380E091
:1000C000089580E090E0FC01EB5FFE4F1082FC01A0
:1000D000EB5EFE4F1082019680319105A1F780E022
:1000E00008951F920F920FB60F921124EF92FF9274
:1000F0000F931F932F933F934F935F936F937F9330
:100100008F939F93AF93BF93CF93DF93EF93FF931F
:1001100080910401843008F47FC02A9A109204016F
:100120002A9880912501882391F4AAE4B1E0E5E0C2
:10013000F1E080E101900D928150E1F7AAE5B1E094
:10014000E5E1F1E080E101900D928150E1F76091ED
:100150002501C62FD0E040E050E082E0E82EF12CEF
:1001600001E010E0CA018095909583709070782F1F
:10017000770FA42FA695A695FA01E65BFE4F808126
:10018000EA2FF0E0681768F0E050FF4FC701072E34
:1001900002C0880F991F0A94E2F78095208182237C
:1001A0000BC0E050FF4F9701072E02C0220F331FF4
:1001B0000A94E2F78081822B8083FA01E65AFE4F8F
:1001C000808190E0809590958F709070EA2FF0E09C
:1001D0008C179D0764F0E050FF4FC80102C0880FE4
:1001E000991F7A95E2F78095208182230AC0E0501A
:1001F000FF4F980102C0220F331F7A95E2F78081EA
:10020000822B80834F5F5F4F4031510509F0AACFA9
:100210006F5F6F706093250180910401E82FF0E01B
:10022000E050FF4F90819EBD8F5F80930401FF914E
:10023000EF91DF91CF91BF91AF919F918F917F917E
:100240006F915F914F913F912F911F910F91FF906F
:10025000EF900F900FBE0F901F9018951092000115
:1002600010920101109202011092030185B1837D69
:1002700085B984B18C6284B980ED8CBD9091040104
:10028000E92FF0E0E050FF4F80818EBD9F5F90939B
:1002900004010895982F80538A3040F0892F8154AB
:1002A000863010F08FEF0895892F87530895982F87
:1002B0008A3010F4805D08958A50863010F08FEFF8
:1002C0000895892F8F5B0895282F8091C000807634
:1002D000803221F42093C60080E00895E091260149
:1002E0009E2F9F5F903408F090E08091270198172F
:1002F00011F48FEF0895F0E0E659FE4F20839093BC
:10030000260180E00895519A509888E18093C100B9
:1003100083E090E09093C5008093C400089580919D
:10032000C00080648093C0009091270180912601D5
:10033000981779F0E92FF0E0E659FE4F808180931D
:10034000C600892F8F5F80932701803410F01092B0
:10035000270108950F931F93CF93DF938091C000DF
:100360000091C6008091C00080688093C000802FFB
:100370008257823010F410924901109149011130D6
:10038000A9F0123009F44AC0112309F090C00337D4
:1003900021F41092280181E006C0023709F089C0DB
:1003A0001092280182E08093490183C00A3011F045
:1003B0000D30E9F480912801803269F4C9E2D1E07E
:1003C00010E0812F688149810E9452001F5F2296B0
:1003D0001031B9F76CC0833009F069C080912901F0
:1003E00060912A0140912B010E94520060C0802F31
:1003F0000E944A0187FD5BC090912801903248F429
:10040000E92FF0E0E75DFE4F80839F5F9093280126
:1004100050C0903209F04DC081E241C00A3011F065
:100420000D3089F5809128018130A1F48091290156
:10043000C82FD0E0FE01EB5FFE4F80810E94570184
:100440000E946401CB5EDE4F88810E9457010E94AA
:1004500064012DC0882369F5C0E0D0E0FE01EB5FA8
:10046000FE4F80810E9457010E946401FE01EB5EF5
:10047000FE4F80810E9457010E9464012196C03185
:10048000D10561F714C0802F0E944A0187FD0FC07B
:1004900090912801992331F48093290181E0809380
:1004A000280107C0923028F41093280102C010924E
:1004B0004901802F0E946401DF91CF911F910F911C
:1004C00008958091C00087FF02C00E94AA01809118
:1004D000C00086FF02C00E948F010895F894FFCFEC
:00000001FF
