:100000000C9434000C9446000C9446000C9446006A
:100010000C9446000C9446000C9446000C94460048
:100020000C9446000C9446000C9446000C94460038
:100030000C9446000C9446000C9446000C94460028
:100040000C9446000C946F000C94A8010C9446008C
:100050000C9486010C9446000C9446000C944600C7
:100060000C9446000C94460011241FBECFEFD8E03C
:10007000DEBFCDBF11E0A0E0B1E001C01D92AA3A01
:10008000B107E1F70E9448000C9481020C94000033
:100090000E942C010E947C0178940E945F00FFCF97
:1000A000803110F08FEF0895E82FF0E0DF01AB5FB3
:1000B000BE4F6C93EB5EFE4F408380E0089580E07E
:1000C00090E0FC01EB5FFE4F1082FC01EB5EFE4F07
:1000D0001082019680319105A1F780E008951F926A
:1000E0000F920FB60F921124EF92FF920F931F936E
:1000F0002F933F934F935F936F937F938F939F9330
:10010000AF93BF93CF93DF93EF93FF93809104015D
:10011000843008F47FC02A9A109204012A988091B2
:100120002501882391F4AAE4B1E0E5E0F1E080E163
:1001300001900D928150E1F7AAE5B1E0E5E1F1E02F
:1001400080E101900D928150E1F760912501C62F69
:10015000D0E040E050E082E0E82EF12C01E010E039
:10016000CA018095909583709070782F770FA42F97
:10017000A695A695FA01E65BFE4F8081EA2FF0E096
:10018000681768F0E050FF4FC701072E02C0880FC4
:10019000991F0A94E2F78095208182230BC0E050DA
:1001A000FF4F9701072E02C0220F331F0A94E2F778
:1001B0008081822B8083FA01E65AFE4F808190E095
:1001C000809590958F709070EA2FF0E08C179D07C6
:1001D00064F0E050FF4FC80102C0880F991F7A9564
:1001E000E2F78095208182230AC0E050FF4F9801FA
:1001F00002C0220F331F7A95E2F78081822B808321
:100200004F5F5F4F4031510509F0AACF6F5F6F70AC
:100210006093250180910401E82FF0E0E050FF4F4A
:1002200090819EBD8F5F80930401FF91EF91DF91DC
:10023000CF91BF91AF919F918F917F916F915F917E
:100240004F913F912F911F910F91FF90EF900F9041
:100250000FBE0F901F90189510920001109201018F
:10026000109202011092030185B1837D85B984B19A
:100270008C6284B983ED8CBD90910401E92FF0E08C
:10028000E050FF4F80818EBD9F5F909304010895E1
:10029000982F80538A3040F0892F8154863010F097
:1002A0008FEF0895892F87530895982F8A3010F47F
:1002B000805D08958A50863010F08FEF0895892F61
:1002C0008F5B089520912601922F9F5F903408F054
:1002D00090E030912701931711F48FEF0895E22FEA
:1002E000F0E0E659FE4F8083321711F48093C60088
:1002F0009093260180E0089588ED8093C10083E00B
:1003000090E09093C5008093C40008951F920F92CF
:100310000FB60F9211248F93EF93FF93E091270173
:10032000EF5FE03408F0E0E0E093270180912601E0
:10033000E81731F0F0E0E659FE4F80818093C60067
:10034000FF91EF918F910F900FBE0F901F90189516
:100350001F920F920FB60F9211240F931F932F939A
:100360003F934F935F936F937F938F939F93AF933D
:10037000BF93CF93DF93EF93FF938091C0008C7175
:1003800019F08091C600A8C00091C600802F825746
:10039000823010F410924901109149011130A9F0F6
:1003A000123009F44BC0112309F091C0033721F436
:1003B0001092280181E006C0023709F08AC010922D
:1003C000280182E08093490184C00A3011F00D3089
:1003D000E9F480912801803269F4C9E2D1E010E0AB
:1003E000812F688149810E9450001F5F2296103141
:1003F000B9F76DC0833009F06AC08091290160911E
:100400002A0140912B010E94500061C0802F0E9460
:10041000480187FD5EC0E09128019E2F9F5FE0327A
:1004200020F4F0E0E75DFE4F8083909328018091F7
:100430002801823208F44DC081E241C00A3011F037
:100440000D3089F5809128018130A1F48091290136
:10045000C82FD0E0FE01EB5FFE4F80810E94550166
:100460000E946201CB5EDE4F88810E9455010E948E
:1004700062012DC0882369F5C0E0D0E0FE01EB5F8A
:10048000FE4F80810E9455010E946201FE01EB5ED9
:10049000FE4F80810E9455010E9462012196C03169
:1004A000D10561F714C0802F0E94480187FD0FC05D
:1004B00090912801992331F48093290181E0809360
:1004C000280107C0923028F41093280102C010922E
:1004D0004901802F0E946201FF91EF91DF91CF913E
:1004E000BF91AF919F918F917F916F915F914F914C
:1004F0003F912F911F910F910F900FBE0F901F9062
:060500001895F894FFCFEE
:00000001FF
