:100000000C9434000C9446000C9446000C9446006A
:100010000C9446000C9446000C9446000C94460048
:100020000C9446000C9446000C9446000C94460038
:100030000C9446000C9446000C9446000C94460028
:100040000C9446000C9467000C9446000C944600F7
:100050000C9446000C9446000C9446000C94460008
:100060000C9446000C94460011241FBECFEFD8E03C
:10007000DEBFCDBF11E0A0E0B1E001C01D92A6340B
:10008000B107E1F70E9454000C941E010C9400008B
:10009000803148F4E82FF0E0DF01AB5FBE4F6C9396
:1000A000EB5EFE4F408308950E940201789480E841
:1000B0008093140110922401109208018FEF809315
:1000C000180180E480930D0180931D01FFCF1F92E2
:1000D0000F920FB60F921124EF92FF920F931F937E
:1000E0002F933F934F935F936F937F938F939F9340
:1000F000AF93BF93CF93DF93EF93FF93809104016E
:10010000843008F45DC02A9A109204012A988091E4
:100110002501882391F4A6E2B1E0E5E0F1E080E179
:1001200001900D928150E1F7A6E3B1E0E5E1F1E045
:1001300080E101900D928150E1F7A0912501CA2F35
:10014000D0E040E050E08DEFE82EF12C01E010E02F
:10015000842F86958695682F70E0B82FBB0FFA0123
:10016000EA5DFE4F8081A81768F0FB01E050FF4F69
:1001700097010B2E02C0220F331F0A94E2F78081F1
:1001800082238083FA01EA5CFE4F808190E08095B3
:1001900090958C179D0764F4FB01E050FF4F980188
:1001A00002C0220F331FBA95E2F78081822B808331
:1001B0004F5F5F4F4031510559F6AF5FA093250166
:1001C00080910401E82FF0E0E050FF4F90819EBD48
:1001D0008F5F80930401FF91EF91DF91CF91BF91E9
:1001E000AF919F918F917F916F915F914F913F91CF
:1001F0002F911F910F91FF90EF900F900FBE0F90D6
:100200001F901895109200011092010110920201A6
:100210001092030185B1837D85B984B18C6284B964
:1002200080ED8CBD90910401E92FF0E0E050FF4F8C
:1002300080818EBD9F5F909304010895F894FFCF55
:00000001FF
