:100000000C9434000C943E000C943E000C943E0082
:100010000C943E000C943E000C943E000C943E0068
:100020000C943E000C943E000C943E000C943E0058
:100030000C943E000C943E000C943E000C943E0048
:100040000C943E000C943E000C943E000C943E0038
:100050000C943E000C943E000C943E000C943E0028
:100060000C943E000C943E0011241FBECFEFD8E04C
:10007000DEBFCDBF0E9459000C94E0000C9400003C
:100080000F931F93182F062F8EEC0E946400882375
:1000900021F00E94B3008FEF09C0812F0E94BB00A6
:1000A000802F0E94BB000E94B30080E01F910F913F
:1000B0000895259A2D9A0E945E00FFCF1092B900F4
:1000C0008CE08093B800089594EA9093BC009091DE
:1000D000BC0097FFFCCF9091B900987F983011F049
:1000E000903199F48093BB0084E88093BC008091A8
:1000F000BC0087FFFCCF9091B900987F983139F010
:1001000081E0903429F480E0089581E0089580E052
:10011000089544EA34E824E94093BC009091BC007F
:1001200097FFFCCF9091B900987F983011F09031F3
:1001300099F78093BB003093BC009091BC0097FF6F
:10014000FCCF9091B900987F903211F0983539F436
:100150002093BC009091BC0094FDFCCFDDCF0895AE
:100160000E946400089584E98093BC008091BC00E3
:1001700084FDFCCF08958093BB0084E88093BC008D
:100180008091BC0087FFFCCF9091B900987F81E0FF
:10019000983209F480E0089584EC8093BC0080914B
:1001A000BC0087FFFCCF8091BB00089584E880935A
:1001B000BC008091BC0087FFFCCF8091BB000895FC
:0401C000F894FFCFE1
:00000001FF
