:100000000C9434000C943E000C943E000C943E0082
:100010000C943E000C943E000C943E000C943E0068
:100020000C943E000C943E000C943E000C943E0058
:100030000C943E000C943E000C943E000C943E0048
:100040000C943E000C943E000C943E000C943E0038
:100050000C943E000C943E000C943E000C943E0028
:100060000C943E000C943E0011241FBECFEFD8E04C
:10007000DEBFCDBF0E9440000C94E3000C94000052
:10008000259A2D9A0E945E00FFCF0F931F93182F81
:10009000062F8EEC0E946400882321F00E94B50098
:1000A0008FEF09C0812F0E94BD00802F0E94BD00EC
:1000B0000E94B50080E01F910F9108951092B90041
:1000C0008CE08093B8000895982F84EA8093BC0058
:1000D0008091BC0087FFFCCF8091B900887F883079
:1000E00021F0803111F081E008959093BB0084E805
:1000F0008093BC008091BC0087FFFCCF9091B90039
:10010000987F983111F480E0089580E0903409F0F0
:1001100081E00895982F44EA34E824E94093BC0034
:100120008091BC0087FFFCCF8091B900887F883028
:1001300011F0803199F79093BB003093BC0080910F
:10014000BC0087FFFCCF8091B900887F803211F01E
:10015000883539F42093BC008091BC0084FDFCCF2D
:10016000DDCF08950E946400089584E98093BC0067
:100170008091BC0084FDFCCF08958093BB0084E88F
:100180008093BC008091BC0087FFFCCF8091B900B8
:1001900090E0887F883209F091E0892F089584ECFF
:1001A0008093BC008091BC0087FFFCCF8091BB0096
:1001B000089584E88093BC008091BC0087FFFCCF49
:0A01C0008091BB000895F894FFCF72
:00000001FF
