:02000000932942
:10000800B1008A0131081F3982070A340D344E3491
:100018005334373433344D342034543465347334E2
:10002800743469346E34673400340D340A3420343F
:10003800543465347334743469346E34673420341A
:1000480044346F346E3465340034FF037F0A031977
:10005800FF037F087F04031D2928080025082604BC
:1000680003194928A7010430270203184428A801C6
:100078004530280203184228A80A3C28A70A37282E
:10008800A503250A0319A603322808007F087F0460
:1000980003196328FF01FF0103307F02031C5A285C
:1000A800031D5E2807307F0203185E28FF0A031924
:1000B800FF0A5028FF037F0A0319FF034A28080094
:1000C8008316031318111812831298170C3083160D
:1000D80099007F1C72280C160B178B1798160800AE
:1000E8008316031318111812831298170C308316ED
:1000F8009900831218167F1C852883168C160B17F7
:100108008B1783160800B1000C1E88283108990047
:100118000800831203138C1E8F281A080800FF0199
:10012800FF01831203138C128C1AA628FF0A0319E5
:10013800FF0A7F08E83A031D98287F08033A031D41
:10014800982800341A080800B1008A01310882078B
:10015800303431343234333434343534363437345B
:1001680038343934413442344334443445344634E1
:10017800A801A901A401240821070420A500A508B5
:1001880003199229253A031D8E29A40A2408210758
:100198000420A500A508031992295C3A031DDB2851
:1001A800A40A240821070420A500872090292508EF
:1001B800623A031DF728A601083026020318902981
:1001C800A21FE82831308720A21BEC283030872076
:1001D8002608033A031DF228203087200310A20DB9
:1001E800A30DA60AE0282508643A031D6229A31F67
:1001F80012292D3087202208B2002308B3001030BE
:10020800B1000310A20DA30DB20DB30D031C1029EC
:10021800A303A203220FA30AB10B05292208230472
:10022800031D19293030872090290430A600A31B0C
:10023800542922082304031954292208B200230848
:10024800B300A7011030B100B20DB30DA70D03180C
:1002580031290A302702031C33290A30A702B10BBF
:1002680028292C30260784008313270880002208B9
:10027800B2002308B300B4011030B100B20DB30DC1
:10028800B40D03184B290A303402031C4E290A30D6
:10029800B4020314A20DA30DB10B4229A6031B2916
:1002A800A60A05302602031890292C302607840058
:1002B80083130008A8208720A60A55292508683A2C
:1002C800031D80293030872078308720A31B7729A9
:1002D800A30803197729230E0F39A82087200F3088
:1002E8002305A8208720220E0F39A82087200F3049
:1002F8002205A820872090292508663A031D87290A
:100308002130872090292508753A031D9029220855
:100318008720902925088720A40ABF28080083166B
:100328000313C821A101A201A301BC200A30A50022
:10033800A601322005120E30A1000530DB21013064
:10034800A100B430DB210230A1000630DB210330EC
:10035800A1008A30DB210430A1002E30DB210830D7
:10036800A1001A30DB21A1010130DB210E30A100F0
:100378000530DB210630A1001E30DB211030A10042
:10038800A201A301BC20C7299B010130850083126B
:100398008501103083168600831286003330831659
:1003A8009900243098009030831298000800A20029
:1003B8008511A401043024020318EC298510211C9E
:1003C8000511211805150310A10C8514A40ADE29AE
:1003D800A401083024020318FB298510221C0511EA
:1003E800221805150310A20C8514A40AED298515F9
:0E03F8000130A500A60132208511230808005F
:00000001FF
