:100000000C943A000C9457000C9457000C94570031
:100010000C9457000C946C020C9457000C948102C1
:100020000C9457000C9457000C9457000C945700F4
:100030000C9457000C9457000C9499030C9457009F
:100040000C9457000C9457000C9457000C945700D4
:100050000C9457000C94B1020C9457000C94570068
:100060000C9457000C9457006364696E6F7073753D
:1000700078585B0011241FBECFEFD8E0DEBFCDBFA4
:1000800011E0A0E0B1E0E8E2FEE002C005900D92D0
:10009000AC37B107D9F711E0ACE7B1E001C01D9270
:1000A000AF3FB107E1F70E9459000C9412070C947E
:1000B00000000E9457020E9490030E9466000E9466
:1000C0001A0378942D9A0E94EE01FDCF82E080936E
:1000D000C00088E18093C10082E290E09093C50067
:1000E0008093C40008958A3010F4805D08958031B3
:1000F00010F08FE30895895C0895982F92959F7072
:100100009A3018F4292F205D02C0292F295C909184
:100110007D019F5F903508F090E0E92FF0E0E55514
:10012000FE4F20838F708A3010F4805D01C0895C9F
:100130009F5F903509F490E0E92FF0E0E555FE4F20
:1001400080839F5F903509F490E0E92FF0E0E5555A
:10015000FE4F80E2808390937D01089590917D0110
:100160009F5F903508F090E0E92FF0E0E555FE4FF5
:10017000808390937D010895FC0101900020E9F7B0
:1001800031974E2F481BDC0190E00FC02C918E2F31
:100190008F5F803508F080E0E82FF0E0E555FE4FF6
:1001A000208380937D019F5F1196E0917D019417DC
:1001B00068F39E2F9F5F903508F090E0E92FF0E004
:1001C000E555FE4F8AE0808390937D01842F8F5FF9
:1001D0000895BF92CF92DF92EF92FF920F931F93F9
:1001E000DF93CF9300D0CDB7DEB780917F01882316
:1001F00009F4E8C00BE911E0F80101900020E9F7EB
:100200003197E01BF10BE63061F4C80160E071E06A
:1002100046E050E00E94AC030097A9F487E091E02B
:100220000FC0E73009F084C0C8016EE171E047E01B
:1002300050E00E94AC03009709F03FC086E291E0D5
:100240000E94BC00BFC0C8016CE371E045E050E013
:100250000E94AC03009709F09CC08FEF90E09A8356
:10026000898300D000D000D0EDB7FEB731960B5F88
:100270001F4FADB7BEB712961C930E93119782E431
:1002800091E093838283CE010196958384830E94BB
:10029000BA03EDB7FEB736960FB6F894FEBF0FBEA1
:1002A000EDBF019709F075C080917B018F3F09F088
:1002B00070C0898180937B016CC0C80167E471E0E4
:1002C00047E050E00E94AC030097A9F5CC24DD2460
:1002D0002AE0B22E21C0D8018D918D010E947D00AF
:1002E0000894E11CF11CB6E0EB16F104A1F7809133
:1002F0007D018F5F803508F080E0E82FF0E0E55564
:10030000FE4FB08280937D010894C11CD11CE4E0B3
:10031000CE16D10409F456C08601000F111F0C0D32
:100320001D1D000F111F0D571E4FEE24FF24D3CFAC
:10033000E830D1F40DC0C8016FE471E047E050E04F
:100340000E94AC03009799F581E080937C013AC04C
:10035000C80167E571E048E050E00E94AC030097F7
:1003600089F510927C012EC0E33089F4C80160E663
:1003700071E043E050E00E94AC03009719F5299B1F
:1003800003C084E691E05CCF87E691E059CFE63088
:1003900061F48BE991E06BE671E046E050E00E9489
:1003A000AC03009779F4299A0DC0E73059F48BE932
:1003B00091E062E771E047E050E00E94AC030097F3
:1003C00009F429980F900F90CF91DF911F910F9111
:1003D000FF90EF90DF90CF90BF9008958091C00084
:1003E00085FF15C0E0917E0180917D01E81779F0CD
:1003F0009E2F9F5F903508F090E0E92FF0E0E555E3
:10040000FE4F80818093C60090937E0109C0809149
:10041000C00086FF05C08091C00080648093C0004A
:100420008091C00087FF42C08091C0008C7141F074
:100430008091C6008091C00080688093C0000895BC
:100440009091C6008091C00080688093C000809128
:100450007C01882369F080917D018F5F803508F0F1
:1004600080E0E82FF0E0E555FE4F908380937D011A
:100470009A3011F0992359F4E0917F01F0E0E556AC
:10048000FE4F10820E94E90010927F010895809132
:100490007F01E82FF0E0E556FE4F90838F5F809359
:1004A0007F01803119F48FE080937F0108952D98AA
:1004B000259A2998219A8BB1837C8BB98AB1837C48
:1004C0008AB918B817B88BB18F738BB98AB18F738B
:1004D0008AB92898509808951F920F920FB60F92DC
:1004E00011248F931092B2008091B100882319F4E7
:1004F00084E08093B1008F910F900FBE0F901F90FA
:1005000018951F920F920FB60F9211248F939F93FD
:100510001092B10089B18C7390E08430910511F490
:1005200090E00DC08830910511F491E008C0803151
:10053000910511F492E003C0809761F493E08091FB
:100540007A018F3F39F490937A0180917A00806428
:1005500080937A009F918F910F900FBE0F901F9004
:1005600018951F920F920FB60F9211242F933F935D
:100570004F935F938F939F93EF93FF9330917C0002
:100580003F7080917A01843018F0363008F045C011
:100590002091790090E0432F50E0FC01EE0FFF1F07
:1005A000E80FF91FEE0FFF1FE40FF51FED57FE4F89
:1005B0002083FC01E550FE4F27FD0CC081E090E058
:1005C000032E02C0880F991F0A94E2F72081282B7E
:1005D00020830CC081E090E0032E02C0880F991F99
:1005E0000A94E2F78095208182238083932F9F5F76
:1005F00080917C00807F80937C00963058F48091BD
:100600007C00982B90937C0080917A00806480938A
:100610007A0003C08FEF80937A01FF91EF919F9151
:100620008F915F914F913F912F910F900FBE0F903F
:100630001F90189588E1E3E8F1E0DF011D928A95AB
:10064000E9F71092FB011092FC011092FD0110924B
:10065000FE018CE380936D0084E08093680082E06B
:100660008093B0008093700088EC8093B30080E6A4
:1006700080937C008FE880937A000895813041F068
:10068000813020F0823039F08FEF0895569A01C002
:10069000579A80E00895209A80E00895813041F0D3
:1006A000813020F0823039F08FEF0895569801C0E4
:1006B000579880E00895209880E008951F93182FA0
:1006C00080918101882359F0809180018823B1F4C1
:1006D00010928101809182010E944E0305C0812FFA
:1006E0000E943E03882311F080E00FC01093820126
:1006F00084E18093800181E0809381018091820177
:10070000181711F08FEF01C081E01F9108951F931A
:10071000182F812F0E945E038823D9F71F91089517
:1007200082E084BD97E497BD80936E0085E085BD2F
:1007300008951F920F920FB60F9211248F938091FC
:100740008001882319F08150809380018F910F9050
:100750000FBE0F901F901895FB01DC0141505040D7
:1007600030F08D910190801919F40020B9F7881BA1
:10077000990B0895AEE0B0E0E0ECF3E00C94EB06EA
:1007800085E08C838B899C899A8389839E01295E6D
:100790003F4FCE0101966D897E89A9010E945805BF
:1007A0002E96E2E00C940707FC0120FD08C023FD13
:1007B00005C022FF02C07383628351834083089582
:1007C000EF92FF920F931F9344FF02C033E011C0DA
:1007D00046FF02C034E00DC0DB01FC01AA0FBB1FC5
:1007E000EE1FFF1F1094D1F76A0F7B1F8E1F9F1FF4
:1007F00031E0660F771F881F991F3150D1F77B01B9
:100800008C01E20EF11C011D111DA8019701B70119
:10081000CA011F910F91FF90EF9008950F931F93BE
:10082000CF93DF938C01C8010E947C06EC0197FDF9
:1008300008C00E946906892BB1F7CE01B8010E9459
:10084000BE06CE01DF91CF911F910F910895A0E0D8
:10085000B0E0EDE2F4E00C94E306EC01C62E5A01A0
:10086000122F0E947C06AC018B3219F08D3251F4AC
:100870001068CA9409F46DC0CE010E947C06AC01D8
:1008800097FD67C06DEFD62ED1228D2D807301F5B7
:100890004033F1F4CA9409F447C0CE010E947C06AB
:1008A000AC0197FD41C082E0D82A483711F04835A5
:1008B00059F480E4D82ACA94B9F1CE010E947C068A
:1008C000AC0199232CF430C0D6FC02C080E1D82AB8
:1008D000EE24FF248701242F2053283088F0D4FCF5
:1008E00009C02A3068F0D6FE05C02F7D822F8151C5
:1008F000863028F0CA01BE010E94BE0612C02750F1
:10090000C801B7014D2D0E94E0037B018C0182E0FC
:10091000D82ACA9461F0CE010E947C06AC0197FFF0
:10092000DACFD1FC04C015C0EE24FF248701D7FE26
:1009300008C010950095F094E094E11CF11C011D95
:10094000111DC501B801A7012D2D0E94D40381E01E
:1009500001C080E0CDB7DEB7EAE00C94FF06A0E26C
:10096000B0E0E5EBF4E00C94DF066C01A62E8A0102
:100970007901FE01319680E2DF011D928A95E9F747
:1009800070E030E060E040E050E04F01A1E0B0E016
:10099000F6018381F70183FD259183FF21917F017A
:1009A000222309F47EC02E3519F44115510569F151
:1009B000872F90E08417950744F42D3551F12D329F
:1009C00021F4332329F431E021C0332309F4622FC9
:1009D000322F832F869586958695F401E80FF11DB9
:1009E000832F87703D0102C0660C771C8A95E2F761
:1009F000208126292083361711F430E007C03617EE
:100A000010F43F5FE6CF3150E4CF71E04F5F5F4FAE
:100A1000BFCF332319F08E8180628E83772359F004
:100A2000FE0131969E012F5D3F4F8081809581931D
:100A3000E217F307D1F7BB24B3944E010894811C4D
:100A4000911CC6010E947C06AC0197FD22C08695D0
:100A500086958695F401E80FF11D808190E09A015A
:100A60002770307002C0959587952A95E2F780FD32
:100A700005C0CA01B6010E94BE060BC001151105D2
:100A800019F0D8014D938D01AA94BB24AA20C9F670
:100A900002C0BB2031F40115110529F0F8011082C4
:100AA00002C0EE24FF24C701A096EEE00C94FB06E2
:100AB000A0E0B0E0EEE5F5E00C94DF065C016B0130
:100AC0003A01FC01178216828824EAC0812F90E047
:100AD0000E946906892B21F0C5010E940E04E0C026
:100AE000153249F4F601F3FC6591F3FE61916F0153
:100AF000653269F415E2C5010E947C0697FDDCC0F1
:100B0000181709F4CDC0B5010E94BE06DAC06A32DA
:100B100019F0162F00E006C0F3FC1591F3FE1191B9
:100B20006F0101E099240FC00260692D70E080E040
:100B300090E040E20E94E003962EF601F3FC15914E
:100B4000F3FE11916F01212F20532A3068F301FD2C
:100B500003C099249A9403C0992009F4B2C01836AE
:100B600021F01C3699F4F6010BC0F601F3FC6591F7
:100B7000F3FE6191683619F06F01162F07C0086007
:100B80000460F3FC1591F3FE11916F01112309F438
:100B900098C088E690E0612F70E00E947106892B72
:100BA00009F48FC0802F00FF03C0EE24FF2407C08C
:100BB000F301E080F18022E030E0620E731E1E3609
:100BC00051F4F5014681578160E070E0C701202FA4
:100BD0000E94D40365C0133691F481FD02C09924AC
:100BE0009394C5010E947C0697FD66C0E114F10450
:100BF00019F0F70181937F019A9499F74FC01B3543
:100C000059F4C501692DA70196010E94AF046C013A
:100C1000009709F043C03DC0C5010E940E0497FD36
:100C20004BC01F3659F1103728F4143629F1193604
:100C300039F527C0133719F0153711F51DC0C50157
:100C40000E947C06EC0197FD11C00E946906892B69
:100C500029F0CE01B5010E94BE0608C0E114F104DE
:100C600019F0F701C1937F019A9449F7E114F10457
:100C7000A9F0F701108212C0006203C0006101C038
:100C80000064C501692DA701202F0E942704882335
:100C900029F4F5018381807379F413C000FF8394F4
:100CA000F501F380F601F3FC1591F3FE11916F014C
:100CB000112309F00BCF05C0882019F42FEF3FEF67
:100CC00002C0282D30E0C901CDB7DEB7EEE00C94AC
:100CD000FB0691116DC0803219F089508550D0F714
:100CE0000895FC010590061621F00020D9F7C001F7
:100CF00008953197CF010895CF93DF93EC014B8195
:100D000040FF1AC046FF0AC04F7B4B838E819F81F4
:100D100001969F838E838A81282F2BC042FF13C0A8
:100D2000E881F9818081282F332727FD309521150F
:100D3000310529F440624B832FEF3FEF1BC0319602
:100D4000F983E88311C0EA85FB85CE0109959C01F2
:100D500097FF0AC09B812F5F3F4F11F080E201C0D7
:100D600080E1892B8B83E8CF8E819F8101969F83C1
:100D70008E8330E0C901DF91CF9108959C01FB0182
:100D8000838180FF11C086FD0FC09FEF2F3F390781
:100D900059F0228380648F7D8383868197810197B8
:100DA0009783868330E002C02FEF3FEFC90108959B
:100DB0009927882708952F923F924F925F926F92C2
:100DC0007F928F929F92AF92BF92CF92DF92EF92DB
:100DD000FF920F931F93CF93DF93CDB7DEB7CA1B5C
:100DE000DB0B0FB6F894DEBF0FBECDBF09942A8887
:100DF000398848885F846E847D848C849B84AA842F
:100E0000B984C884DF80EE80FD800C811B81AA81BB
:100E1000B981CE0FD11D0FB6F894DEBF0FBECDBF86
:080E2000ED010895F894FFCFE5
:100E28004445564943450041726475696E6F2046D2
:100E38004D207472616E736D6974746572005645E5
:100E48005253494F4E0046572041756720203420A1
:100E5800323031312044454255470A0050524553FB
:100E6800530025303158004449535041444300450C
:100E780043484F204F4E004543484F204F464600B9
:100E8800505752004F4E004F464600505752204F81
:0C0E98004E00505752204F464600FFFF0E
:00000001FF
