:100000000C9434000C9451000C9451000C94510049
:100010000C9451000C9419020C9451000C942E0273
:100020000C9451000C9451000C9451000C9451000C
:100030000C9451000C9451000C9446030C94510004
:100040000C9451000C9451000C9451000C945100EC
:100050000C9451000C945E020C9451000C945100CD
:100060000C9451000C94510011241FBECFEFD8E026
:10007000DEBFCDBF11E0A0E0B1E0E2EDF6E002C0EE
:1000800005900D92A037B107D9F711E0A0E7B1E0D4
:1000900001C01D92A33FB107E1F70E9453000C94E9
:1000A00067030C9400000E9404020E945E000E94FC
:1000B000C70278942D9A0E949B01FDCF82E0809325
:1000C000C00088E18093C10082E290E09093C50077
:1000D0008093C40008958A3010F4805D08958031C3
:1000E00010F08FE30895895C0895982F92959F7082
:1000F0009A3018F4292F205D02C0292F295C909195
:1001000071019F5F903508F090E0E92FF0E0E15633
:10011000FE4F20838F708A3010F4805D01C0895CAF
:100120009F5F903509F490E0E92FF0E0E156FE4F33
:1001300080839F5F903509F490E0E92FF0E0E1566D
:10014000FE4F80E280839093710108959091710138
:100150009F5F903508F090E0E92FF0E0E156FE4F08
:100160008083909371010895FC0101900020E9F7CC
:1001700031974E2F481BDC0190E00FC02C918E2F41
:100180008F5F803508F080E0E82FF0E0E156FE4F09
:100190002083809371019F5F1196E0917101941704
:1001A00068F39E2F9F5F903508F090E0E92FF0E014
:1001B000E156FE4F8AE0808390937101842F8F5F18
:1001C0000895DF92EF92FF920F931F93CF93DF93E7
:1001D00080917301882309F4A6C0CFE8D1E0FE0125
:1001E00001900020E9F73197EC1BFD0BE63069F434
:1001F000CE0160E071E046E050E00E9459030097B4
:1002000009F079C087E091E00EC0E73009F052C0F4
:10021000CE016EE171E047E050E00E945903009783
:1002200029F486E291E00E94B4007DC0CE016CE327
:1002300071E047E050E00E945903009771F5EE2409
:10024000FF242AE0D22E1DC089910E9475000F5F05
:100250001F4F06301105C1F7809171018F5F803506
:1002600008F080E0E82FF0E0E156FE4FD082809366
:1002700071010894E11CF11C84E0E816F10409F412
:1002800052C0E701CC0FDD1FCE0DDF1DCC0FDD1FEF
:10029000C958DE4F00E010E0D7CFCE0164E471E032
:1002A00047E050E00E945903009791F581E0809368
:1002B000700139C0E83061F4CE016CE471E048E0CF
:1002C00050E00E945903009771F5109270012BC005
:1002D000E330E1F4CE0165E571E043E050E00E94D7
:1002E0005903009701F5299B03C089E591E09BCF55
:1002F0008CE591E098CFCE0160E671E046E050E0F9
:100300000E945903009779F4299A0DC0E73059F4F7
:100310008FE891E067E671E047E050E00E94590302
:10032000009709F42998DF91CF911F910F91FF90C9
:10033000EF90DF9008958091C00085FF15C0E09197
:10034000720180917101E81779F09E2F9F5F9035BF
:1003500008F090E0E92FF0E0E156FE4F80818093B5
:10036000C6009093720109C08091C00086FF05C04D
:100370008091C00080648093C0008091C00087FF9E
:1003800042C08091C0008C7141F08091C600809184
:10039000C00080688093C00008959091C60080914D
:1003A000C00080688093C00080917001882369F04C
:1003B000809171018F5F803508F080E0E82FF0E0D8
:1003C000E156FE4F9083809371019A3011F099238A
:1003D00059F4E0917301F0E0E157FE4F10820E9462
:1003E000E10010927301089580917301E82FF0E00D
:1003F000E157FE4F90838F5F80937301803119F432
:100400008FE08093730108952D98259A2998219A59
:100410008BB1837C8BB98AB1837C8AB918B817B841
:100420008BB18F738BB98AB18F738AB92898509822
:1004300008951F920F920FB60F9211248F9310926E
:10044000B2008091B100882319F484E08093B10058
:100450008F910F900FBE0F901F9018951F920F92C3
:100460000FB60F9211248F939F931092B10089B110
:100470008C7390E08430910511F490E00DC08830C9
:10048000910511F491E008C08031910511F492E0DA
:1004900003C0809761F493E080916F018F3F39F43E
:1004A00090936F0180917A00806480937A009F918D
:1004B0008F910F900FBE0F901F9018951F920F9263
:1004C0000FB60F9211242F933F934F935F938F9307
:1004D0009F93EF93FF9330917C003F7080916F0169
:1004E000843018F0363008F045C02091790090E053
:1004F000432F50E0FC01EE0FFF1FE80FF91FEE0F36
:10050000FF1FE40FF51FE958FE4F2083FC01E15166
:10051000FE4F27FD0CC081E090E0032E02C0880F43
:10052000991F0A94E2F72081282B20830CC081E0D8
:1005300090E0032E02C0880F991F0A94E2F780957D
:10054000208182238083932F9F5F80917C00807F16
:1005500080937C00963058F480917C00982B909387
:100560007C0080917A00806480937A0003C08FEFD2
:1005700080936F01FF91EF919F918F915F914F91C8
:100580003F912F910F900FBE0F901F90189588E10B
:10059000E7E7F1E0DF011D928A95E9F71092EF019C
:1005A0001092F0011092F1011092F2018CE380930D
:1005B0006D0084E08093680082E08093B0008093B7
:1005C000700088EC8093B30080E680937C008FE815
:1005D00080937A000895813041F0813020F082309C
:1005E00039F08FEF0895569A01C0579A80E0089528
:1005F000209A80E00895813041F0813020F08230EF
:1006000039F08FEF0895569801C0579880E008950B
:10061000209880E008951F93182F809175018823FA
:1006200059F0809174018823B1F410927501809182
:1006300076010E94FB0205C0812F0E94EB028823F5
:1006400011F080E00FC01093760184E18093740173
:1006500081E08093750180917601181711F08FEF7A
:1006600001C081E01F9108951F93182F812F0E94D0
:100670000B038823D9F71F91089582E084BD97E486
:1006800097BD80936E0085E085BD08951F920F92FF
:100690000FB60F9211248F9380917401882319F063
:1006A0008150809374018F910F900FBE0F901F9017
:1006B0001895FB01DC014150504030F08D910190C4
:1006C000801919F40020B9F7881B990B0895F89444
:0206D000FFCF5A
:1006D2004445564943450041726475696E6F204630
:1006E2004D207472616E736D697474657200564543
:1006F2005253494F4E0046572041756720203420FF
:10070200323031312044454255470A004449535062
:10071200414443004543484F204F4E004543484F14
:10072200204F464600505752004F4E004F4646005B
:10073200505752204F4E00505752204F464600FF0E
:00000001FF
