:100000000C9434000C9451000C9451000C94510049
:100010000C9451000C9451000C9451000C9451001C
:100020000C9451000C9451000C9451000C9451000C
:100030000C9451000C9451000C9451000C945100FC
:100040000C9451000C9451000C9451000C945100EC
:100050000C9451000C9451000C9451000C945100DC
:100060000C9451000C94510011241FBECFEFD8E026
:10007000DEBFCDBF11E0A0E0B1E0E4E2F3E002C0FA
:1000800005900D92AE32B107D9F711E0AEE2B1E0C2
:1000900001C01D92A037B107E1F70E9453000C94F4
:1000A00090010C9400000E946D010E945C00789405
:1000B0002D9A0E940001FDCF82E08093C00088E16C
:1000C0008093C10082E290E09093C5008093C400C9
:1000D000089590912E019F5F903308F090E0E92FF2
:1000E000F0E0E05CFE4F808390932E010895FC01C8
:1000F00001900020E9F731974E2F481BDC0190E07A
:100100000FC02C918E2F8F5F803308F080E0E82F96
:10011000F0E0E05CFE4F208380932E019F5F1196FC
:10012000E0912E01941768F39E2F9F5F903308F0A3
:1001300090E0E92FF0E0E05CFE4F8AE0808390934E
:100140002E01842F8F5F0895CF93DF9380912C0130
:1001500018160CF052C0C0E3D1E0FE01019000205F
:10016000E9F73197EC1BFD0BE73069F4CE0160E055
:1001700071E047E050E00E9482010097A1F581E024
:1001800080932B013AC0E83061F4CE0168E071E061
:1001900048E050E00E948201009779F510922B010F
:1001A0002CC0E33099F4CE0161E171E043E050E00E
:1001B0000E948201009709F5299B03C085E191E027
:1001C00002C088E191E00E94770017C0E630A9F4F0
:1001D000CE016CE171E046E050E00E9482010097A0
:1001E00061F4299A0AC0CE0163E271E047E050E071
:1001F0000E948201009709F42998DF91CF91089518
:100200008091C00085FF15C0E0912F0180912E01E3
:10021000E81779F09E2F9F5F903308F090E0E92F68
:10022000F0E0E05CFE4F80818093C60090932F0148
:1002300009C08091C00086FF05C08091C000806425
:100240008093C0008091C00087FF46C08091C000AD
:100250008C7141F08091C6008091C00080688093CD
:10026000C00008959091C6008091C000806880937E
:10027000C00080912B01882369F080912E018F5F4F
:10028000803308F080E0E82FF0E0E05CFE4F9083E0
:1002900080932E019A3011F0992369F4E0912C019A
:1002A000FF27E7FDF095E05DFE4F10820E94A4005D
:1002B00010922C01089580912C01E82FFF27E7FD73
:1002C000F095E05DFE4F90838F5F80932C0180312D
:1002D00019F48FE080932C0108952D98259A299880
:1002E000219A8BB1837C8BB98AB1837C8AB918B887
:1002F00017B88BB18F738BB98AB18F738AB928986D
:1003000050980895FB01DC014150504030F08D9130
:100310000190801919F40020B9F7881B990B0895F2
:04032000F894FFCF7F
:100324004543484F204F4E004543484F204F4646D3
:1003340000505752004F4E004F464600505752202F
:0E0344004F4E00505752204F46460001FF001A
:00000001FF
