:100000000C9434000C9451000C9451000C94510049
:100010000C9451000C94FD010C9451000C941202AC
:100020000C9451000C9451000C9451000C9451000C
:100030000C9451000C9451000C94FE020C9451004D
:100040000C9451000C9451000C9451000C945100EC
:100050000C9451000C9442020C9451000C945100E9
:100060000C9451000C94510011241FBECFEFD8E026
:10007000DEBFCDBF11E0A0E0B1E0E2E4F6E002C0F7
:1000800005900D92A433B107D9F711E0A4E3B1E0D4
:1000900001C01D92A33BB107E1F70E9453000C94ED
:1000A0001F030C9400000E94E8010E945E000E9461
:1000B000870278942D9A0E947F01FDCF82E0809381
:1000C000C00088E18093C10082E290E09093C50077
:1000D0008093C40008958A3010F4805D08958031C3
:1000E00010F08FE30895895C0895982F92959F7082
:1000F0009A3018F4292F205D02C0292F295C909195
:1001000035019F5F903508F090E0E92FF0E0ED5960
:10011000FE4F20838F708A3010F4805D01C0895CAF
:100120009F5F903509F490E0E92FF0E0ED59FE4F24
:1001300080839F5F903509F490E0E92FF0E0ED595E
:10014000FE4F80E2808390933501089590913501B0
:100150009F5F903508F090E0E92FF0E0ED59FE4FF9
:100160008083909335010895FC0101900020E9F708
:1001700031974E2F481BDC0190E00FC02C918E2F41
:100180008F5F803508F080E0E82FF0E0ED59FE4FFA
:100190002083809335019F5F1196E091350194177C
:1001A00068F39E2F9F5F903508F090E0E92FF0E014
:1001B000ED59FE4F8AE0808390933501842F8F5F45
:1001C0000895DF92EF92FF920F931F93CF93DF93E7
:1001D00080913701882309F48AC0C3E5D1E0FE018C
:1001E00001900020E9F73197EC1BFD0BE73009F097
:1001F00044C0CE0160E071E047E050E00E9411038E
:10020000009771F5EE24FF242AE0D22E1DC08991BB
:100210000E9475000F5F1F4F06301105C1F78091D6
:1002200035018F5F803508F080E0E82FF0E0ED5970
:10023000FE4FD082809335010894E11CF11C84E0CC
:10024000E816F10409F453C0E701CC0FDD1FCE0D11
:10025000DF1DCC0FDD1FC55CDE4F00E010E0D7CF07
:10026000CE0168E071E047E050E00E941103009782
:10027000A1F581E0809334013AC0E83061F4CE0109
:1002800060E171E048E050E00E941103009779F5C9
:10029000109234012CC0E33099F4CE0169E171E091
:1002A00043E050E00E941103009709F5299B03C029
:1002B0008DE191E002C080E291E00E94B40017C09D
:1002C000E630A9F4CE0164E271E046E050E00E941D
:1002D0001103009761F4299A0AC0CE016BE271E024
:1002E00047E050E00E941103009709F42998DF913C
:1002F000CF911F910F91FF90EF90DF900895809123
:10030000C00085FF15C0E091360180913501E817E6
:1003100079F09E2F9F5F903508F090E0E92FF0E094
:10032000ED59FE4F80818093C6009093360109C03D
:100330008091C00086FF05C08091C00080648093DA
:10034000C0008091C00087FF42C08091C0008C71C6
:1003500041F08091C6008091C00080688093C00009
:1003600008959091C6008091C00080688093C0007D
:1003700080913401882369F0809135018F5F803549
:1003800008F080E0E82FF0E0ED59FE4F9083809375
:1003900035019A3011F0992359F4E0913701F0E0DA
:1003A000ED5AFE4F10820E94E1001092370108952D
:1003B00080913701E82FF0E0ED5AFE4F90838F5F78
:1003C00080933701803119F48FE0809337010895CD
:1003D0002D98259A2998219A8BB1837C8BB98AB163
:1003E000837C8AB918B817B88BB18F738BB98AB16F
:1003F0008F738AB92898509808951F920F920FB65C
:100400000F9211248F931092B2008091B100882333
:1004100019F484E08093B1008F910F900FBE0F907C
:100420001F9018951F920F920FB60F9211248F9361
:100430009F931092B10089B18C7390E08430910544
:1004400011F490E00DC08830910511F491E008C0DE
:100450008031910511F492E003C0809761F493E03C
:10046000809133018F3F39F49093330180917A006A
:10047000806480937A009F918F910F900FBE0F90B0
:100480001F9018951F920F920FB60F9211242F9361
:100490003F938F939F93EF93FF9330917C003F7036
:1004A00080913301843010F0363030F5209179009E
:1004B00090E0FC01EE0FFF1FE80FF91FEE0FFF1F8A
:1004C000E30FF11DE55CFE4F2083932F9F5F80912A
:1004D0007C00807F80937C00963058F480917C0073
:1004E000982B90937C0080917A00806480937A00AE
:1004F00003C08FEF80933301FF91EF919F918F9114
:100500003F912F910F900FBE0F901F90189588E18B
:10051000EBE3F1E0DF011D928A95E9F78CE380932C
:100520006D0084E08093680082E08093B000809347
:10053000700088EC8093B30080E680937C008FE8A5
:1005400080937A000895813041F0813020F082302C
:1005500039F08FEF0895569A01C0579A80E00895B8
:10056000209A80E00895813041F0813020F082307F
:1005700039F08FEF0895569801C0579880E008959C
:10058000209880E008951F93182F809139018823C7
:1005900059F0809138018823B1F41092390180918B
:1005A0003A010E94B30205C0812F0E94A302882352
:1005B00011F080E00FC010933A0184E1809338017C
:1005C00081E08093390180913A01181711F08FEF83
:1005D00001C081E01F9108951F93182F812F0E9461
:1005E000C3028823D9F71F91089582E084BD97E460
:1005F00097BD80936E0085E085BD08951F920F9290
:100600000FB60F9211248F9380913801882319F02F
:100610008150809338018F910F900FBE0F901F90E3
:100620001895FB01DC014150504030F08D91019054
:10063000801919F40020B9F7881B990B0895F894D4
:02064000FFCFEA
:1006420044495350414443004543484F204F4E00D4
:100652004543484F204F464600505752004F4E00E8
:100662004F464600505752204F4E00505752204F8F
:04067200464600FFF9
:00000001FF
