:100000000C9434000C9451000C9451000C94510049
:100010000C9451000C9451000C9451000C9451001C
:100020000C9451000C9451000C9451000C9451000C
:100030000C9451000C9451000C9451000C945100FC
:100040000C9451000C9451000C9451000C945100EC
:100050000C9451000C9451000C9451000C945100DC
:100060000C9451000C94510011241FBECFEFD8E026
:10007000DEBFCDBF11E0A0E0B1E0ECE1F3E002C0F3
:1000800005900D92AC32B107D9F711E0ACE2B1E0C6
:1000900001C01D92AF36B107E1F70E9453000C94E6
:1000A0008C010C9400000E9469010E945C0078940D
:1000B0002D9A0E940001FDCF82E08093C00088E16C
:1000C0008093C10082E290E09093C5008093C400C9
:1000D000089590912C019F5F903308F090E0E92FF4
:1000E000F0E0E15CFE4F808390932C010895FC01C9
:1000F00001900020E9F731974E2F481BDC0190E07A
:100100000FC02C918E2F8F5F803308F080E0E82F96
:10011000F0E0E15CFE4F208380932C019F5F1196FD
:10012000E0912C01941768F39E2F9F5F903308F0A5
:1001300090E0E92FF0E0E15CFE4F8AE0808390934D
:100140002C01842F8F5F0895CF93DF9380912E0130
:10015000882309F452C0CFE2D1E0FE0101900020D3
:10016000E9F73197EC1BFD0BE73069F4CE0160E055
:1001700071E047E050E00E947E010097A1F581E028
:1001800080932B013AC0E83061F4CE0168E071E061
:1001900048E050E00E947E01009779F510922B0113
:1001A0002CC0E33099F4CE0161E171E043E050E00E
:1001B0000E947E01009709F5299B03C085E191E02B
:1001C00002C088E191E00E94770017C0E630A9F4F0
:1001D000CE016CE171E046E050E00E947E010097A4
:1001E00061F4299A0AC0CE0163E271E047E050E071
:1001F0000E947E01009709F42998DF91CF9108951C
:100200008091C00085FF15C0E0912D0180912C01E7
:10021000E81779F09E2F9F5F903308F090E0E92F68
:10022000F0E0E15CFE4F80818093C60090932D0149
:1002300009C08091C00086FF05C08091C000806425
:100240008093C0008091C00087FF42C08091C000B1
:100250008C7141F08091C6008091C00080688093CD
:10026000C00008959091C6008091C000806880937E
:10027000C00080912B01882369F080912C018F5F51
:10028000803308F080E0E82FF0E0E15CFE4F9083DF
:1002900080932C019A3011F0992359F4E0912E01AA
:1002A000F0E0E15DFE4F10820E94A40010922E014A
:1002B000089580912E01E82FF0E0E15DFE4F9083DC
:1002C0008F5F80932E01803119F48FE080932E018F
:1002D00008952D98259A2998219A8BB1837C8BB902
:1002E0008AB1837C8AB918B817B88BB18F738BB970
:1002F0008AB18F738AB9289850980895FB01DC0160
:100300004150504030F08D910190801919F4002037
:0C031000B9F7881B990B0895F894FFCFF3
:10031C004543484F204F4E004543484F204F4646DB
:10032C0000505752004F4E004F4646005057522037
:0C033C004F4E00505752204F4646000123
:00000001FF
