:100000000C943A000C9457000C9457000C94570031
:100010000C9457000C94BA030C9457000C94CF0323
:100020000C9457000C9457000C9457000C945700F4
:100030000C9457000C9457000C94C2040C94570075
:100040000C9457000C9457000C9457000C945700D4
:100050000C9457000C94FF030C9457000C94570019
:100060000C9457000C9457006364696E6F7073753D
:1000700078585B0011241FBECFEFD8E0DEBFCDBFA4
:1000800011E0A0E0B1E0E4E0F1E102C005900D92E2
:10009000A838B107D9F712E0A8E8B1E001C01D9275
:1000A000AD30B107E1F70E9459000C9480080C9420
:1000B00000000E9426030E94B9040E9466000E946C
:1000C000720478942D9A0E94BD02FDCF82E0809345
:1000D000C00088E18093C10082E290E09093C50067
:1000E0008093C40008958A3010F4805D08958031B3
:1000F00010F08FE30895895C0895982F92959F7072
:100100009A3018F4292F205D02C0292F295C909184
:1001100089019F5F903508F090E0E92FF0E0E3540B
:10012000FE4F20838F708A3010F4805D01C0895C9F
:100130009F5F903509F490E0E92FF0E0E354FE4F23
:1001400080839093890108950F931F939C0168EE1B
:1001500073E00E940605462FC90168EE73E00E9415
:10016000060564E670E00E940605162FC90164E6E4
:1001700070E00E9406056AE070E00E940605062F06
:10018000C9016AE070E00E940605282F4423C1F0EF
:100190004A3018F4642F605D06C0403110F06FE300
:1001A00002C0642F695C809189018F5F803508F0FF
:1001B00080E0E82FF0E0E354FE4F608380938901F4
:1001C0001A3018F4612F605D06C0103110F06FE333
:1001D00002C0612F695C809189018F5F803508F0D2
:1001E00080E0E82FF0E0E354FE4F60830A3018F41B
:1001F000602F605D06C0003110F06FE302C0602F19
:10020000695C8F5F803509F480E0E82FF0E0E3540B
:10021000FE4F6083982F9F5F903509F490E0E92F9F
:10022000F0E0E354FE4F8EE280832A3018F4822FF0
:10023000805D06C0203110F08FE302C0822F895C00
:100240009F5F903509F490E0E92FF0E0E354FE4F12
:100250008083909389011F910F9108959091890156
:100260009F5F903508F090E0E92FF0E0E354FE4FF7
:100270008083909389010895FC0101900020E9F7A3
:1002800031974E2F481BDC0190E00FC02C918E2F30
:100290008F5F803508F080E0E82FF0E0E354FE4FF8
:1002A0002083809389019F5F1196E09189019417C3
:1002B00068F39E2F9F5F903508F090E0E92FF0E003
:1002C000E354FE4F8AE0808390938901842F8F5FEF
:1002D0000895BF92CF92DF92EF92FF920F931F93F8
:1002E000DF93CF9300D0CDB7DEB780918B01882309
:1002F00009F437C10DEA11E0F80101900020E9F797
:100300003197E01BF10BE63061F4C80160E071E069
:1003100046E050E00E941A05009741F587E091E021
:100320000DC0E73071F4C8016EE171E047E050E0C4
:100330000E941A05009731F586E291E00E943C0187
:1003400010C1E33009F07DC0C8016BE371E043E008
:1003500050E00E941A05009709F003C1299B03C0D1
:100360008FE391E0EBCF82E491E0E8CFC80166E44F
:1003700071E046E050E00E941A05009709F0A0C025
:10038000299AEFC0C8016DE471E047E050E00E9497
:100390001A05009711F42998E4C0C80165E571E0D9
:1003A00047E050E00E941A050097B1F5CC24DD2407
:1003B0002CE2B22E20C0D8018D918D010E947D00CB
:1003C0000894E11CF11CB6E0EB16F104A1F7809152
:1003D00089018F5F803508F080E0E82FF0E0E3547A
:1003E000FE4FB082809389010894C11CD11CE4E0C7
:1003F000CE16D10461F08601000F111F0C0D1D1DDA
:10040000000F111F0F561E4FEE24FF24D4CF982F3C
:100410009F5F903569F12DC0C8016DE571E047E03F
:1004200050E00E941A05009769F509EA11E0D80129
:100430008D918D010E947D00B1E00D3A1B07B9F747
:1004400012C0E43069F5C80165E671E044E050E0AF
:100450000E941A05009709F084C080918C01909148
:100460008D010E94A400909189019F5F903508F052
:1004700090E0E92FF0E0E354FE4F8AE08083909310
:1004800089016FC0C8016AE671E047E050E00E9450
:100490001A05009709F065C081E08093880161C06A
:1004A000E83009F05EC0C80162E771E048E050E062
:1004B0000E941A05009709F054C01092880151C09B
:1004C000C8016BE771E045E050E00E941A05009713
:1004D00009F047C08FEF90E09A83898300D000D065
:1004E00000D0EDB7FEB731960B5F1F4FADB7BEB76B
:1004F00012961C930E93119781E891E09383828367
:10050000CE010196958384830E942805EDB7FEB73E
:1005100036960FB6F894FEBF0FBEEDBF019709F5F2
:10052000898180FF04C080E00E94960403C080E0BF
:100530000E94A904898181FF04C081E00E94960481
:1005400003C081E00E94A904898182FF04C082E087
:100550000E94960403C082E00E94A90489818093CE
:1005600090010F900F90CF91DF911F910F91FF900D
:10057000EF90DF90CF90BF9008958091C00085FFED
:1005800015C0E0918A0180918901E81779F09E2FCA
:100590009F5F903508F090E0E92FF0E0E354FE4FC4
:1005A00080818093C60090938A0109C08091C00029
:1005B00086FF05C08091C00080648093C000809158
:1005C000C00087FF42C08091C0008C7141F08091D3
:1005D000C6008091C00080688093C000089590910B
:1005E000C6008091C00080688093C000809188011F
:1005F000882369F0809189018F5F803508F080E061
:10060000E82FF0E0E354FE4F9083809389019A3005
:1006100011F0992359F4E0918B01F0E0E355FE4F7E
:1006200010820E94690110928B01089580918B01C4
:10063000E82FF0E0E355FE4F90838F5F80938B01AE
:10064000803119F48FE080938B0108952D98259ABD
:100650002998219A8BB1837C8BB98AB1837C8AB922
:1006600018B817B88BB18F738BB98AB18F738AB9E9
:10067000289850980895873341F1883360F4883280
:10068000C1F0893218F48B3141F517C08E32C9F0B0
:10069000863319F518C08D3371F08E3328F4883302
:1006A000B1F08A33D1F40BC08E33A9F08F33A9F4A3
:1006B00010C081E0089580E0089582E0089583E00D
:1006C000089584E0089585E0089586E0089587E020
:1006D000089588E0089589E008958FEF0895FF92C6
:1006E0000F931F938091A90188720E943B03182FDA
:1006F0008091AA010E943B03F82E8091AB010E94D9
:100700003B03082F8091AC010E943B03482F6FEF01
:10071000F61661F10F3F51F18F3F41F11F3F09F490
:1007200010E0212F332727FD309588EE93E0B901A3
:10073000689F9001699F300D789F300D112484E6E9
:100740004802C0011124280F391F802F992787FDE7
:100750009095280F391F8AE07F2D7802C00111245F
:10076000280F391F30938D0120938C011F910F9119
:10077000FF9008951F920F920FB60F9211248F933E
:100780001092B2008091B100882319F484E0809324
:10079000B1008F910F900FBE0F901F9018951F9270
:1007A0000F920FB60F9211248F939F931092B10066
:1007B00089B18C7390E08430910511F490E00DC004
:1007C0008830910511F491E008C08031910511F451
:1007D00092E003C0809761F493E0809186018F3F9F
:1007E00039F49093860180917A00806480937A0036
:1007F0009F918F910F900FBE0F901F9018951F9291
:100800000F920FB60F9211242F933F934F935F9344
:100810006F937F938F939F93AF93BF93EF93FF93C8
:1008200030917C003F7080918601843018F0363022
:1008300008F047C02091790090E0432F50E0FC0180
:10084000EE0FFF1FE80FF91FEE0FFF1FE40FF51F5C
:10085000EF56FE4F2083FC01E755FE4F27FD0CC0ED
:1008600081E090E0032E02C0880F991F0A94E2F7FE
:100870002081282B20830CC081E090E0032E02C051
:10088000880F991F0A94E2F7809520818223808344
:10089000932F9F5F80917C00807F80937C009630B7
:1008A00058F480917C00982B90937C0080917A0082
:1008B000806480937A0005C08FEF809386010E9448
:1008C0006F03FF91EF91BF91AF919F918F917F91B6
:1008D0006F915F914F913F912F910F900FBE0F90AD
:1008E0001F90189588E1E1E9F1E0DF011D928A95FA
:1008F000E9F71092A9011092AA011092AB0110928F
:10090000AC018CE380936D0084E08093680082E00A
:100910008093B0008093700088EC8093B30080E6F1
:1009200080937C008FE880937A000895813049F0AD
:10093000813020F0823049F08FEF0895569A5E980A
:1009400002C0579A5F9880E00895209A289880E026
:100950000895813041F0813020F0823039F08FEFFE
:100960000895569801C0579880E00895209880E037
:10097000089582E084BD97E497BD80936E0085E082
:1009800085BD08951F920F920FB60F9211242F93D9
:100990003F934F935F936F937F938F939F93AF9307
:1009A000BF93EF93FF9380919001882331F484EFFC
:1009B00091E090938F0180938E0180918E019091B0
:1009C0008F01009791F0019790938F0180938E0192
:1009D000892B59F480E00E94A90481E00E94A904B7
:1009E00082E00E94A90410929001FF91EF91BF91C3
:1009F000AF919F918F917F916F915F914F913F91B7
:100A00002F910F900FBE0F901F901895AA1BBB1B24
:100A100051E107C0AA1FBB1FA617B70710F0A61BFE
:100A2000B70B881F991F5A95A9F780959095BC011F
:100A3000CD010895FB01DC014150504030F08D9113
:100A40000190801919F40020B9F7881B990B0895BB
:100A5000AEE0B0E0EEE2F5E00C94590885E08C835E
:100A60008B899C899A8389839E01295E3F4FCE01A1
:100A700001966D897E89A9010E94C6062E96E2E044
:100A80000C947508FC0120FD08C023FD05C022FF61
:100A900002C073836283518340830895EF92FF9273
:100AA0000F931F9344FF02C033E011C046FF02C002
:100AB00034E00DC0DB01FC01AA0FBB1FEE1FFF1FBE
:100AC0001094D1F76A0F7B1F8E1F9F1F31E0660FB6
:100AD000771F881F991F3150D1F77B018C01E20EDF
:100AE000F11C011D111DA8019701B701CA011F9139
:100AF0000F91FF90EF9008950F931F93CF93DF9383
:100B00008C01C8010E94EA07EC0197FD08C00E9411
:100B1000D707892BB1F7CE01B8010E942C08CE016E
:100B2000DF91CF911F910F910895A0E0B0E0EBE924
:100B3000F5E00C945108EC01C62E5A01122F0E94C8
:100B4000EA07AC018B3219F08D3251F41068CA9467
:100B500009F46DC0CE010E94EA07AC0197FD67C0A1
:100B60006DEFD62ED1228D2D807301F54033F1F437
:100B7000CA9409F447C0CE010E94EA07AC0197FD70
:100B800041C082E0D82A483711F0483559F480E452
:100B9000D82ACA94B9F1CE010E94EA07AC01992380
:100BA0002CF430C0D6FC02C080E1D82AEE24FF2409
:100BB0008701242F2053283088F0D4FC09C02A3024
:100BC00068F0D6FE05C02F7D822F8151863028F037
:100BD000CA01BE010E942C0812C02750C801B701EB
:100BE0004D2D0E944E057B018C0182E0D82ACA94CB
:100BF00061F0CE010E94EA07AC0197FFDACFD1FC89
:100C000004C015C0EE24FF248701D7FE08C010954C
:100C10000095F094E094E11CF11C011D111DC5012B
:100C2000B801A7012D2D0E94420581E001C080E09E
:100C3000CDB7DEB7EAE00C946D08A0E2B0E0E3E2E5
:100C4000F6E00C944D086C01A62E8A017901FE0194
:100C5000319680E2DF011D928A95E9F770E030E07D
:100C600060E040E050E04F01A1E0B0E0F601838198
:100C7000F70183FD259183FF21917F01222309F450
:100C80007EC02E3519F44115510569F1872F90E08A
:100C90008417950744F42D3551F12D3221F4332377
:100CA00029F431E021C0332309F4622F322F832F3E
:100CB000869586958695F401E80FF11D832F877040
:100CC0003D0102C0660C771C8A95E2F72081262937
:100CD0002083361711F430E007C0361710F43F5F59
:100CE000E6CF3150E4CF71E04F5F5F4FBFCF33238A
:100CF00019F08E8180628E83772359F0FE01319640
:100D00009E012F5D3F4F808180958193E217F3070D
:100D1000D1F7BB24B3944E010894811C911CC601E9
:100D20000E94EA07AC0197FD22C0869586958695BC
:100D3000F401E80FF11D808190E09A012770307076
:100D400002C0959587952A95E2F780FD05C0CA01F6
:100D5000B6010E942C080BC00115110519F0D8012D
:100D60004D938D01AA94BB24AA20C9F602C0BB20D2
:100D700031F40115110529F0F801108202C0EE24AA
:100D8000FF24C701A096EEE00C946908A0E0B0E053
:100D9000ECECF6E00C944D085C016B013A01FC01AF
:100DA000178216828824EAC0812F90E00E94D7071C
:100DB000892B21F0C5010E947C05E0C0153249F461
:100DC000F601F3FC6591F3FE61916F01653269F400
:100DD00015E2C5010E94EA0797FDDCC0181709F467
:100DE000CDC0B5010E942C08DAC06A3219F0162F66
:100DF00000E006C0F3FC1591F3FE11916F0101E0D4
:100E000099240FC00260692D70E080E090E040E21C
:100E10000E944E05962EF601F3FC1591F3FE1191FA
:100E20006F01212F20532A3068F301FD03C099245C
:100E30009A9403C0992009F4B2C0183621F01C36E8
:100E400099F4F6010BC0F601F3FC6591F3FE619194
:100E5000683619F06F01162F07C008600460F3FCB4
:100E60001591F3FE11916F01112309F498C088E6E2
:100E700090E0612F70E00E94DF07892B09F48FC09A
:100E8000802F00FF03C0EE24FF2407C0F301E080A1
:100E9000F18022E030E0620E731E1E3651F4F5013F
:100EA0004681578160E070E0C701202F0E94420513
:100EB00065C0133691F481FD02C099249394C50155
:100EC0000E94EA0797FD66C0E114F10419F0F701EA
:100ED00081937F019A9499F74FC01B3559F4C5014E
:100EE000692DA70196010E941D066C01009709F06B
:100EF00043C03DC0C5010E947C0597FD4BC01F3615
:100F000059F1103728F4143629F1193639F527C06C
:100F1000133719F0153711F51DC0C5010E94EA07F6
:100F2000EC0197FD11C00E94D707892B29F0CE0153
:100F3000B5010E942C0808C0E114F10419F0F70172
:100F4000C1937F019A9449F7E114F104A9F0F701E4
:100F5000108212C0006203C0006101C00064C501BC
:100F6000692DA701202F0E949505882329F4F501FA
:100F70008381807379F413C000FF8394F501F380BB
:100F8000F601F3FC1591F3FE11916F01112309F0A5
:100F90000BCF05C0882019F42FEF3FEF02C0282D9A
:100FA00030E0C901CDB7DEB7EEE00C9469089111CD
:100FB0006DC0803219F089508550D0F70895FC013A
:100FC0000590061621F00020D9F7C0010895319749
:100FD000CF010895CF93DF93EC014B8140FF1AC0FE
:100FE00046FF0AC04F7B4B838E819F8101969F8372
:100FF0008E838A81282F2BC042FF13C0E881F9819C
:101000008081282F332727FD30952115310529F4BC
:1010100040624B832FEF3FEF1BC03196F983E8838B
:1010200011C0EA85FB85CE0109959C0197FF0AC096
:101030009B812F5F3F4F11F080E201C080E1892B3F
:101040008B83E8CF8E819F8101969F838E8330E0D2
:10105000C901DF91CF9108959C01FB01838180FF3D
:1010600011C086FD0FC09FEF2F3F390759F0228333
:1010700080648F7D838386819781019797838683A0
:1010800030E002C02FEF3FEFC9010895992788276C
:1010900008952F923F924F925F926F927F928F921C
:1010A0009F92AF92BF92CF92DF92EF92FF920F93F7
:1010B0001F93CF93DF93CDB7DEB7CA1BDB0B0FB601
:1010C000F894DEBF0FBECDBF09942A8839884888BE
:1010D0005F846E847D848C849B84AA84B984C88454
:1010E000DF80EE80FD800C811B81AA81B981CE0F4B
:1010F000D11D0FB6F894DEBF0FBECDBFED01089530
:04110000F894FFCF91
:101104004445564943450041726475696E6F2046F3
:101114004D207472616E736D697474657200564506
:101124005253494F4E0046572041756720203520C1
:101134003230313120444542554700505752004F18
:101144004E004F464600505752204F4E00505752C3
:10115400204F4646004449535041444300444953B8
:101164005050494E0044495350004543484F204F86
:101174004E004543484F204F464600505245535376
:08118400002530315800FF0086
:00000001FF
